{
  "contractName": "Reservation",
  "abi": [
    {
      "inputs": [],
      "stateMutability": "nonpayable",
      "type": "constructor"
    },
    {
      "anonymous": false,
      "inputs": [
        {
          "indexed": true,
          "internalType": "address",
          "name": "owner",
          "type": "address"
        },
        {
          "indexed": true,
          "internalType": "address",
          "name": "approved",
          "type": "address"
        },
        {
          "indexed": true,
          "internalType": "uint256",
          "name": "tokenId",
          "type": "uint256"
        }
      ],
      "name": "Approval",
      "type": "event"
    },
    {
      "anonymous": false,
      "inputs": [
        {
          "indexed": true,
          "internalType": "address",
          "name": "owner",
          "type": "address"
        },
        {
          "indexed": true,
          "internalType": "address",
          "name": "operator",
          "type": "address"
        },
        {
          "indexed": false,
          "internalType": "bool",
          "name": "approved",
          "type": "bool"
        }
      ],
      "name": "ApprovalForAll",
      "type": "event"
    },
    {
      "anonymous": false,
      "inputs": [
        {
          "indexed": true,
          "internalType": "address",
          "name": "from",
          "type": "address"
        },
        {
          "indexed": true,
          "internalType": "address",
          "name": "to",
          "type": "address"
        },
        {
          "indexed": true,
          "internalType": "uint256",
          "name": "tokenId",
          "type": "uint256"
        }
      ],
      "name": "Transfer",
      "type": "event"
    },
    {
      "inputs": [
        {
          "internalType": "address",
          "name": "to",
          "type": "address"
        },
        {
          "internalType": "uint256",
          "name": "tokenId",
          "type": "uint256"
        }
      ],
      "name": "approve",
      "outputs": [],
      "stateMutability": "nonpayable",
      "type": "function"
    },
    {
      "inputs": [
        {
          "internalType": "address",
          "name": "owner",
          "type": "address"
        }
      ],
      "name": "balanceOf",
      "outputs": [
        {
          "internalType": "uint256",
          "name": "",
          "type": "uint256"
        }
      ],
      "stateMutability": "view",
      "type": "function",
      "constant": true
    },
    {
      "inputs": [],
      "name": "count",
      "outputs": [
        {
          "internalType": "uint256",
          "name": "",
          "type": "uint256"
        }
      ],
      "stateMutability": "view",
      "type": "function",
      "constant": true
    },
    {
      "inputs": [
        {
          "internalType": "uint256",
          "name": "tokenId",
          "type": "uint256"
        }
      ],
      "name": "getApproved",
      "outputs": [
        {
          "internalType": "address",
          "name": "",
          "type": "address"
        }
      ],
      "stateMutability": "view",
      "type": "function",
      "constant": true
    },
    {
      "inputs": [
        {
          "internalType": "address",
          "name": "owner",
          "type": "address"
        },
        {
          "internalType": "address",
          "name": "operator",
          "type": "address"
        }
      ],
      "name": "isApprovedForAll",
      "outputs": [
        {
          "internalType": "bool",
          "name": "",
          "type": "bool"
        }
      ],
      "stateMutability": "view",
      "type": "function",
      "constant": true
    },
    {
      "inputs": [],
      "name": "name",
      "outputs": [
        {
          "internalType": "string",
          "name": "",
          "type": "string"
        }
      ],
      "stateMutability": "view",
      "type": "function",
      "constant": true
    },
    {
      "inputs": [],
      "name": "owner",
      "outputs": [
        {
          "internalType": "address",
          "name": "",
          "type": "address"
        }
      ],
      "stateMutability": "view",
      "type": "function",
      "constant": true
    },
    {
      "inputs": [
        {
          "internalType": "uint256",
          "name": "tokenId",
          "type": "uint256"
        }
      ],
      "name": "ownerOf",
      "outputs": [
        {
          "internalType": "address",
          "name": "",
          "type": "address"
        }
      ],
      "stateMutability": "view",
      "type": "function",
      "constant": true
    },
    {
      "inputs": [
        {
          "internalType": "uint256",
          "name": "",
          "type": "uint256"
        }
      ],
      "name": "reservations",
      "outputs": [
        {
          "internalType": "uint256",
          "name": "id",
          "type": "uint256"
        },
        {
          "internalType": "string",
          "name": "name",
          "type": "string"
        },
        {
          "internalType": "address",
          "name": "customer_addr",
          "type": "address"
        },
        {
          "internalType": "uint256",
          "name": "people",
          "type": "uint256"
        },
        {
          "internalType": "uint256",
          "name": "dateEpoch",
          "type": "uint256"
        },
        {
          "internalType": "bool",
          "name": "valid",
          "type": "bool"
        }
      ],
      "stateMutability": "view",
      "type": "function",
      "constant": true
    },
    {
      "inputs": [
        {
          "internalType": "address",
          "name": "from",
          "type": "address"
        },
        {
          "internalType": "address",
          "name": "to",
          "type": "address"
        },
        {
          "internalType": "uint256",
          "name": "tokenId",
          "type": "uint256"
        }
      ],
      "name": "safeTransferFrom",
      "outputs": [],
      "stateMutability": "nonpayable",
      "type": "function"
    },
    {
      "inputs": [
        {
          "internalType": "address",
          "name": "from",
          "type": "address"
        },
        {
          "internalType": "address",
          "name": "to",
          "type": "address"
        },
        {
          "internalType": "uint256",
          "name": "tokenId",
          "type": "uint256"
        },
        {
          "internalType": "bytes",
          "name": "_data",
          "type": "bytes"
        }
      ],
      "name": "safeTransferFrom",
      "outputs": [],
      "stateMutability": "nonpayable",
      "type": "function"
    },
    {
      "inputs": [
        {
          "internalType": "address",
          "name": "operator",
          "type": "address"
        },
        {
          "internalType": "bool",
          "name": "approved",
          "type": "bool"
        }
      ],
      "name": "setApprovalForAll",
      "outputs": [],
      "stateMutability": "nonpayable",
      "type": "function"
    },
    {
      "inputs": [
        {
          "internalType": "bytes4",
          "name": "interfaceId",
          "type": "bytes4"
        }
      ],
      "name": "supportsInterface",
      "outputs": [
        {
          "internalType": "bool",
          "name": "",
          "type": "bool"
        }
      ],
      "stateMutability": "view",
      "type": "function",
      "constant": true
    },
    {
      "inputs": [],
      "name": "symbol",
      "outputs": [
        {
          "internalType": "string",
          "name": "",
          "type": "string"
        }
      ],
      "stateMutability": "view",
      "type": "function",
      "constant": true
    },
    {
      "inputs": [
        {
          "internalType": "uint256",
          "name": "tokenId",
          "type": "uint256"
        }
      ],
      "name": "tokenURI",
      "outputs": [
        {
          "internalType": "string",
          "name": "",
          "type": "string"
        }
      ],
      "stateMutability": "view",
      "type": "function",
      "constant": true
    },
    {
      "inputs": [
        {
          "internalType": "address",
          "name": "from",
          "type": "address"
        },
        {
          "internalType": "address",
          "name": "to",
          "type": "address"
        },
        {
          "internalType": "uint256",
          "name": "tokenId",
          "type": "uint256"
        }
      ],
      "name": "transferFrom",
      "outputs": [],
      "stateMutability": "nonpayable",
      "type": "function"
    },
    {
      "inputs": [
        {
          "internalType": "address",
          "name": "_customer_addr",
          "type": "address"
        },
        {
          "internalType": "string",
          "name": "_name",
          "type": "string"
        },
        {
          "internalType": "uint256",
          "name": "_people",
          "type": "uint256"
        },
        {
          "internalType": "uint256",
          "name": "_dateEpoch",
          "type": "uint256"
        },
        {
          "internalType": "string",
          "name": "_tokenURI",
          "type": "string"
        }
      ],
      "name": "mint",
      "outputs": [],
      "stateMutability": "nonpayable",
      "type": "function"
    },
    {
      "inputs": [
        {
          "internalType": "uint256",
          "name": "_id",
          "type": "uint256"
        }
      ],
      "name": "checkValidity",
      "outputs": [
        {
          "internalType": "bool",
          "name": "",
          "type": "bool"
        }
      ],
      "stateMutability": "view",
      "type": "function",
      "constant": true
    },
    {
      "inputs": [],
      "name": "the_total_Supply",
      "outputs": [
        {
          "internalType": "uint256",
          "name": "",
          "type": "uint256"
        }
      ],
      "stateMutability": "view",
      "type": "function",
      "constant": true
    }
  ],
  "bytecode": "0x60806040523480156200001157600080fd5b506040518060400160405280600b81526020017f5265736572766174696f6e0000000000000000000000000000000000000000008152506040518060400160405280600b81526020017f5245534552564154494f4e000000000000000000000000000000000000000000815250816000908051906020019062000096929190620000f9565b508060019080519060200190620000af929190620000f9565b50505033600960006101000a81548173ffffffffffffffffffffffffffffffffffffffff021916908373ffffffffffffffffffffffffffffffffffffffff1602179055506200020e565b8280546200010790620001a9565b90600052602060002090601f0160209004810192826200012b576000855562000177565b82601f106200014657805160ff191683800117855562000177565b8280016001018555821562000177579182015b828111156200017657825182559160200191906001019062000159565b5b5090506200018691906200018a565b5090565b5b80821115620001a55760008160009055506001016200018b565b5090565b60006002820490506001821680620001c257607f821691505b60208210811415620001d957620001d8620001df565b5b50919050565b7f4e487b7100000000000000000000000000000000000000000000000000000000600052602260045260246000fd5b6131fb806200021e6000396000f3fe608060405234801561001057600080fd5b50600436106101215760003560e01c806342842e0e116100ad57806395d89b411161007157806395d89b4114610333578063a22cb46514610351578063b88d4fde1461036d578063c87b56dd14610389578063e985e9c5146103b957610121565b806342842e0e146102695780636352211e1461028557806370a08231146102b557806377153fd0146102e55780638da5cb5b1461031557610121565b8063081812fc116100f4578063081812fc146101c7578063095ea7b3146101f75780630acac642146102135780630c151fec1461023157806323b872dd1461024d57610121565b806301ffc9a71461012657806306661abd14610156578063067cf8321461017457806306fdde03146101a9575b600080fd5b610140600480360381019061013b91906121f1565b6103e9565b60405161014d9190612603565b60405180910390f35b61015e6104cb565b60405161016b9190612840565b60405180910390f35b61018e6004803603810190610189919061224b565b6104d1565b6040516101a09695949392919061285b565b60405180910390f35b6101b16105c2565b6040516101be919061261e565b60405180910390f35b6101e160048036038101906101dc919061224b565b610654565b6040516101ee919061259c565b60405180910390f35b610211600480360381019061020c91906121b1565b6106d9565b005b61021b6107f1565b6040516102289190612840565b60405180910390f35b61024b600480360381019061024691906120fe565b6107fb565b005b61026760048036038101906102629190611fe8565b610b19565b005b610283600480360381019061027e9190611fe8565b610b79565b005b61029f600480360381019061029a919061224b565b610b99565b6040516102ac919061259c565b60405180910390f35b6102cf60048036038101906102ca9190611f7b565b610c4b565b6040516102dc9190612840565b60405180910390f35b6102ff60048036038101906102fa919061224b565b610d03565b60405161030c9190612603565b60405180910390f35b61031d610d58565b60405161032a919061259c565b60405180910390f35b61033b610d7e565b604051610348919061261e565b60405180910390f35b61036b600480360381019061036691906120be565b610e10565b005b6103876004803603810190610382919061203b565b610f91565b005b6103a3600480360381019061039e919061224b565b610ff3565b6040516103b0919061261e565b60405180910390f35b6103d360048036038101906103ce9190611fa8565b611145565b6040516103e09190612603565b60405180910390f35b60007f80ac58cd000000000000000000000000000000000000000000000000000000007bffffffffffffffffffffffffffffffffffffffffffffffffffffffff1916827bffffffffffffffffffffffffffffffffffffffffffffffffffffffff191614806104b457507f5b5e139f000000000000000000000000000000000000000000000000000000007bffffffffffffffffffffffffffffffffffffffffffffffffffffffff1916827bffffffffffffffffffffffffffffffffffffffffffffffffffffffff1916145b806104c457506104c3826111d9565b5b9050919050565b60085481565b60076020528060005260406000206000915090508060000154908060010180546104fa90612afe565b80601f016020809104026020016040519081016040528092919081815260200182805461052690612afe565b80156105735780601f1061054857610100808354040283529160200191610573565b820191906000526020600020905b81548152906001019060200180831161055657829003601f168201915b5050505050908060020160009054906101000a900473ffffffffffffffffffffffffffffffffffffffff16908060030154908060040154908060050160009054906101000a900460ff16905086565b6060600080546105d190612afe565b80601f01602080910402602001604051908101604052809291908181526020018280546105fd90612afe565b801561064a5780601f1061061f5761010080835404028352916020019161064a565b820191906000526020600020905b81548152906001019060200180831161062d57829003601f168201915b5050505050905090565b600061065f82611243565b61069e576040517f08c379a0000000000000000000000000000000000000000000000000000000008152600401610695906127a0565b60405180910390fd5b6004600083815260200190815260200160002060009054906101000a900473ffffffffffffffffffffffffffffffffffffffff169050919050565b60006106e482610b99565b90508073ffffffffffffffffffffffffffffffffffffffff168373ffffffffffffffffffffffffffffffffffffffff161415610755576040517f08c379a000000000000000000000000000000000000000000000000000000000815260040161074c90612800565b60405180910390fd5b8073ffffffffffffffffffffffffffffffffffffffff166107746112af565b73ffffffffffffffffffffffffffffffffffffffff1614806107a357506107a28161079d6112af565b611145565b5b6107e2576040517f08c379a00000000000000000000000000000000000000000000000000000000081526004016107d9906126e0565b60405180910390fd5b6107ec83836112b7565b505050565b6000600854905090565b3373ffffffffffffffffffffffffffffffffffffffff16600960009054906101000a900473ffffffffffffffffffffffffffffffffffffffff1673ffffffffffffffffffffffffffffffffffffffff161461085557600080fd5b600084511161086357600080fd5b42821161086f57600080fd5b600060085490506108808682611370565b61088a818361138e565b6008600081548092919061089d90612b61565b91905055506000600760008381526020019081526020016000206040518060c0016040529081600082015481526020016001820180546108dc90612afe565b80601f016020809104026020016040519081016040528092919081815260200182805461090890612afe565b80156109555780601f1061092a57610100808354040283529160200191610955565b820191906000526020600020905b81548152906001019060200180831161093857829003601f168201915b505050505081526020016002820160009054906101000a900473ffffffffffffffffffffffffffffffffffffffff1673ffffffffffffffffffffffffffffffffffffffff1673ffffffffffffffffffffffffffffffffffffffff16815260200160038201548152602001600482015481526020016005820160009054906101000a900460ff16151515158152505090506008548160000181815250508581602001819052508481606001818152505086816040019073ffffffffffffffffffffffffffffffffffffffff16908173ffffffffffffffffffffffffffffffffffffffff16815250508381608001818152505060018160a00190151590811515815250508060076000848152602001908152602001600020600082015181600001556020820151816001019080519060200190610a91929190611d8f565b5060408201518160020160006101000a81548173ffffffffffffffffffffffffffffffffffffffff021916908373ffffffffffffffffffffffffffffffffffffffff160217905550606082015181600301556080820151816004015560a08201518160050160006101000a81548160ff02191690831515021790555090505050505050505050565b610b2a610b246112af565b82611402565b610b69576040517f08c379a0000000000000000000000000000000000000000000000000000000008152600401610b6090612820565b60405180910390fd5b610b748383836114e0565b505050565b610b9483838360405180602001604052806000815250610f91565b505050565b6000806002600084815260200190815260200160002060009054906101000a900473ffffffffffffffffffffffffffffffffffffffff169050600073ffffffffffffffffffffffffffffffffffffffff168173ffffffffffffffffffffffffffffffffffffffff161415610c42576040517f08c379a0000000000000000000000000000000000000000000000000000000008152600401610c3990612720565b60405180910390fd5b80915050919050565b60008073ffffffffffffffffffffffffffffffffffffffff168273ffffffffffffffffffffffffffffffffffffffff161415610cbc576040517f08c379a0000000000000000000000000000000000000000000000000000000008152600401610cb390612700565b60405180910390fd5b600360008373ffffffffffffffffffffffffffffffffffffffff1673ffffffffffffffffffffffffffffffffffffffff168152602001908152602001600020549050919050565b6000806007600084815260200190815260200160002060050160009054906101000a900460ff1690506007600084815260200190815260200160002060040154421115610d4f57600090505b80915050919050565b600960009054906101000a900473ffffffffffffffffffffffffffffffffffffffff1681565b606060018054610d8d90612afe565b80601f0160208091040260200160405190810160405280929190818152602001828054610db990612afe565b8015610e065780601f10610ddb57610100808354040283529160200191610e06565b820191906000526020600020905b815481529060010190602001808311610de957829003601f168201915b5050505050905090565b610e186112af565b73ffffffffffffffffffffffffffffffffffffffff168273ffffffffffffffffffffffffffffffffffffffff161415610e86576040517f08c379a0000000000000000000000000000000000000000000000000000000008152600401610e7d906126a0565b60405180910390fd5b8060056000610e936112af565b73ffffffffffffffffffffffffffffffffffffffff1673ffffffffffffffffffffffffffffffffffffffff16815260200190815260200160002060008473ffffffffffffffffffffffffffffffffffffffff1673ffffffffffffffffffffffffffffffffffffffff16815260200190815260200160002060006101000a81548160ff0219169083151502179055508173ffffffffffffffffffffffffffffffffffffffff16610f406112af565b73ffffffffffffffffffffffffffffffffffffffff167f17307eab39ab6107e8899845ad3d59bd9653f200f220920489ca2b5937696c3183604051610f859190612603565b60405180910390a35050565b610fa2610f9c6112af565b83611402565b610fe1576040517f08c379a0000000000000000000000000000000000000000000000000000000008152600401610fd890612820565b60405180910390fd5b610fed8484848461173c565b50505050565b6060610ffe82611243565b61103d576040517f08c379a000000000000000000000000000000000000000000000000000000000815260040161103490612780565b60405180910390fd5b600060066000848152602001908152602001600020805461105d90612afe565b80601f016020809104026020016040519081016040528092919081815260200182805461108990612afe565b80156110d65780601f106110ab576101008083540402835291602001916110d6565b820191906000526020600020905b8154815290600101906020018083116110b957829003601f168201915b5050505050905060006110e7611798565b90506000815114156110fd578192505050611140565b60008251111561113257808260405160200161111a929190612578565b60405160208183030381529060405292505050611140565b61113b846117af565b925050505b919050565b6000600560008473ffffffffffffffffffffffffffffffffffffffff1673ffffffffffffffffffffffffffffffffffffffff16815260200190815260200160002060008373ffffffffffffffffffffffffffffffffffffffff1673ffffffffffffffffffffffffffffffffffffffff16815260200190815260200160002060009054906101000a900460ff16905092915050565b60007f01ffc9a7000000000000000000000000000000000000000000000000000000007bffffffffffffffffffffffffffffffffffffffffffffffffffffffff1916827bffffffffffffffffffffffffffffffffffffffffffffffffffffffff1916149050919050565b60008073ffffffffffffffffffffffffffffffffffffffff166002600084815260200190815260200160002060009054906101000a900473ffffffffffffffffffffffffffffffffffffffff1673ffffffffffffffffffffffffffffffffffffffff1614159050919050565b600033905090565b816004600083815260200190815260200160002060006101000a81548173ffffffffffffffffffffffffffffffffffffffff021916908373ffffffffffffffffffffffffffffffffffffffff160217905550808273ffffffffffffffffffffffffffffffffffffffff1661132a83610b99565b73ffffffffffffffffffffffffffffffffffffffff167f8c5be1e5ebec7d5bd14f71427d1e84f3dd0314c0f7b2291e5b200ac8c7c3b92560405160405180910390a45050565b61138a828260405180602001604052806000815250611856565b5050565b61139782611243565b6113d6576040517f08c379a00000000000000000000000000000000000000000000000000000000081526004016113cd90612740565b60405180910390fd5b806006600084815260200190815260200160002090805190602001906113fd929190611d8f565b505050565b600061140d82611243565b61144c576040517f08c379a0000000000000000000000000000000000000000000000000000000008152600401611443906126c0565b60405180910390fd5b600061145783610b99565b90508073ffffffffffffffffffffffffffffffffffffffff168473ffffffffffffffffffffffffffffffffffffffff1614806114c657508373ffffffffffffffffffffffffffffffffffffffff166114ae84610654565b73ffffffffffffffffffffffffffffffffffffffff16145b806114d757506114d68185611145565b5b91505092915050565b8273ffffffffffffffffffffffffffffffffffffffff1661150082610b99565b73ffffffffffffffffffffffffffffffffffffffff1614611556576040517f08c379a000000000000000000000000000000000000000000000000000000000815260040161154d906127c0565b60405180910390fd5b600073ffffffffffffffffffffffffffffffffffffffff168273ffffffffffffffffffffffffffffffffffffffff1614156115c6576040517f08c379a00000000000000000000000000000000000000000000000000000000081526004016115bd90612680565b60405180910390fd5b6115d18383836118b1565b6115dc6000826112b7565b6001600360008573ffffffffffffffffffffffffffffffffffffffff1673ffffffffffffffffffffffffffffffffffffffff168152602001908152602001600020600082825461162c9190612a14565b925050819055506001600360008473ffffffffffffffffffffffffffffffffffffffff1673ffffffffffffffffffffffffffffffffffffffff1681526020019081526020016000206000828254611683919061298d565b92505081905550816002600083815260200190815260200160002060006101000a81548173ffffffffffffffffffffffffffffffffffffffff021916908373ffffffffffffffffffffffffffffffffffffffff160217905550808273ffffffffffffffffffffffffffffffffffffffff168473ffffffffffffffffffffffffffffffffffffffff167fddf252ad1be2c89b69c2b068fc378daa952ba7f163c4a11628f55a4df523b3ef60405160405180910390a4505050565b6117478484846114e0565b611753848484846118b6565b611792576040517f08c379a000000000000000000000000000000000000000000000000000000000815260040161178990612640565b60405180910390fd5b50505050565b606060405180602001604052806000815250905090565b60606117ba82611243565b6117f9576040517f08c379a00000000000000000000000000000000000000000000000000000000081526004016117f0906127e0565b60405180910390fd5b6000611803611798565b90506000815111611823576040518060200160405280600081525061184e565b8061182d84611a4d565b60405160200161183e929190612578565b6040516020818303038152906040525b915050919050565b6118608383611bae565b61186d60008484846118b6565b6118ac576040517f08c379a00000000000000000000000000000000000000000000000000000000081526004016118a390612640565b60405180910390fd5b505050565b505050565b60006118d78473ffffffffffffffffffffffffffffffffffffffff16611d7c565b15611a40578373ffffffffffffffffffffffffffffffffffffffff1663150b7a026119006112af565b8786866040518563ffffffff1660e01b815260040161192294939291906125b7565b602060405180830381600087803b15801561193c57600080fd5b505af192505050801561196d57506040513d601f19601f8201168201806040525081019061196a919061221e565b60015b6119f0573d806000811461199d576040519150601f19603f3d011682016040523d82523d6000602084013e6119a2565b606091505b506000815114156119e8576040517f08c379a00000000000000000000000000000000000000000000000000000000081526004016119df90612640565b60405180910390fd5b805181602001fd5b63150b7a0260e01b7bffffffffffffffffffffffffffffffffffffffffffffffffffffffff1916817bffffffffffffffffffffffffffffffffffffffffffffffffffffffff191614915050611a45565b600190505b949350505050565b60606000821415611a95576040518060400160405280600181526020017f30000000000000000000000000000000000000000000000000000000000000008152509050611ba9565b600082905060005b60008214611ac7578080611ab090612b61565b915050600a82611ac091906129e3565b9150611a9d565b60008167ffffffffffffffff811115611ae357611ae2612c97565b5b6040519080825280601f01601f191660200182016040528015611b155781602001600182028036833780820191505090505b5090505b60008514611ba257600182611b2e9190612a14565b9150600a85611b3d9190612baa565b6030611b49919061298d565b60f81b818381518110611b5f57611b5e612c68565b5b60200101907effffffffffffffffffffffffffffffffffffffffffffffffffffffffffffff1916908160001a905350600a85611b9b91906129e3565b9450611b19565b8093505050505b919050565b600073ffffffffffffffffffffffffffffffffffffffff168273ffffffffffffffffffffffffffffffffffffffff161415611c1e576040517f08c379a0000000000000000000000000000000000000000000000000000000008152600401611c1590612760565b60405180910390fd5b611c2781611243565b15611c67576040517f08c379a0000000000000000000000000000000000000000000000000000000008152600401611c5e90612660565b60405180910390fd5b611c73600083836118b1565b6001600360008473ffffffffffffffffffffffffffffffffffffffff1673ffffffffffffffffffffffffffffffffffffffff1681526020019081526020016000206000828254611cc3919061298d565b92505081905550816002600083815260200190815260200160002060006101000a81548173ffffffffffffffffffffffffffffffffffffffff021916908373ffffffffffffffffffffffffffffffffffffffff160217905550808273ffffffffffffffffffffffffffffffffffffffff16600073ffffffffffffffffffffffffffffffffffffffff167fddf252ad1be2c89b69c2b068fc378daa952ba7f163c4a11628f55a4df523b3ef60405160405180910390a45050565b600080823b905060008111915050919050565b828054611d9b90612afe565b90600052602060002090601f016020900481019282611dbd5760008555611e04565b82601f10611dd657805160ff1916838001178555611e04565b82800160010185558215611e04579182015b82811115611e03578251825591602001919060010190611de8565b5b509050611e119190611e15565b5090565b5b80821115611e2e576000816000905550600101611e16565b5090565b6000611e45611e40846128e8565b6128c3565b905082815260208101848484011115611e6157611e60612ccb565b5b611e6c848285612abc565b509392505050565b6000611e87611e8284612919565b6128c3565b905082815260208101848484011115611ea357611ea2612ccb565b5b611eae848285612abc565b509392505050565b600081359050611ec581613169565b92915050565b600081359050611eda81613180565b92915050565b600081359050611eef81613197565b92915050565b600081519050611f0481613197565b92915050565b600082601f830112611f1f57611f1e612cc6565b5b8135611f2f848260208601611e32565b91505092915050565b600082601f830112611f4d57611f4c612cc6565b5b8135611f5d848260208601611e74565b91505092915050565b600081359050611f75816131ae565b92915050565b600060208284031215611f9157611f90612cd5565b5b6000611f9f84828501611eb6565b91505092915050565b60008060408385031215611fbf57611fbe612cd5565b5b6000611fcd85828601611eb6565b9250506020611fde85828601611eb6565b9150509250929050565b60008060006060848603121561200157612000612cd5565b5b600061200f86828701611eb6565b935050602061202086828701611eb6565b925050604061203186828701611f66565b9150509250925092565b6000806000806080858703121561205557612054612cd5565b5b600061206387828801611eb6565b945050602061207487828801611eb6565b935050604061208587828801611f66565b925050606085013567ffffffffffffffff8111156120a6576120a5612cd0565b5b6120b287828801611f0a565b91505092959194509250565b600080604083850312156120d5576120d4612cd5565b5b60006120e385828601611eb6565b92505060206120f485828601611ecb565b9150509250929050565b600080600080600060a0868803121561211a57612119612cd5565b5b600061212888828901611eb6565b955050602086013567ffffffffffffffff81111561214957612148612cd0565b5b61215588828901611f38565b945050604061216688828901611f66565b935050606061217788828901611f66565b925050608086013567ffffffffffffffff81111561219857612197612cd0565b5b6121a488828901611f38565b9150509295509295909350565b600080604083850312156121c8576121c7612cd5565b5b60006121d685828601611eb6565b92505060206121e785828601611f66565b9150509250929050565b60006020828403121561220757612206612cd5565b5b600061221584828501611ee0565b91505092915050565b60006020828403121561223457612233612cd5565b5b600061224284828501611ef5565b91505092915050565b60006020828403121561226157612260612cd5565b5b600061226f84828501611f66565b91505092915050565b61228181612a48565b82525050565b61229081612a5a565b82525050565b60006122a18261294a565b6122ab8185612960565b93506122bb818560208601612acb565b6122c481612cda565b840191505092915050565b60006122da82612955565b6122e48185612971565b93506122f4818560208601612acb565b6122fd81612cda565b840191505092915050565b600061231382612955565b61231d8185612982565b935061232d818560208601612acb565b80840191505092915050565b6000612346603283612971565b915061235182612ceb565b604082019050919050565b6000612369601c83612971565b915061237482612d3a565b602082019050919050565b600061238c602483612971565b915061239782612d63565b604082019050919050565b60006123af601983612971565b91506123ba82612db2565b602082019050919050565b60006123d2602c83612971565b91506123dd82612ddb565b604082019050919050565b60006123f5603883612971565b915061240082612e2a565b604082019050919050565b6000612418602a83612971565b915061242382612e79565b604082019050919050565b600061243b602983612971565b915061244682612ec8565b604082019050919050565b600061245e602e83612971565b915061246982612f17565b604082019050919050565b6000612481602083612971565b915061248c82612f66565b602082019050919050565b60006124a4603183612971565b91506124af82612f8f565b604082019050919050565b60006124c7602c83612971565b91506124d282612fde565b604082019050919050565b60006124ea602983612971565b91506124f58261302d565b604082019050919050565b600061250d602f83612971565b91506125188261307c565b604082019050919050565b6000612530602183612971565b915061253b826130cb565b604082019050919050565b6000612553603183612971565b915061255e8261311a565b604082019050919050565b61257281612ab2565b82525050565b60006125848285612308565b91506125908284612308565b91508190509392505050565b60006020820190506125b16000830184612278565b92915050565b60006080820190506125cc6000830187612278565b6125d96020830186612278565b6125e66040830185612569565b81810360608301526125f88184612296565b905095945050505050565b60006020820190506126186000830184612287565b92915050565b6000602082019050818103600083015261263881846122cf565b905092915050565b6000602082019050818103600083015261265981612339565b9050919050565b600060208201905081810360008301526126798161235c565b9050919050565b600060208201905081810360008301526126998161237f565b9050919050565b600060208201905081810360008301526126b9816123a2565b9050919050565b600060208201905081810360008301526126d9816123c5565b9050919050565b600060208201905081810360008301526126f9816123e8565b9050919050565b600060208201905081810360008301526127198161240b565b9050919050565b600060208201905081810360008301526127398161242e565b9050919050565b6000602082019050818103600083015261275981612451565b9050919050565b6000602082019050818103600083015261277981612474565b9050919050565b6000602082019050818103600083015261279981612497565b9050919050565b600060208201905081810360008301526127b9816124ba565b9050919050565b600060208201905081810360008301526127d9816124dd565b9050919050565b600060208201905081810360008301526127f981612500565b9050919050565b6000602082019050818103600083015261281981612523565b9050919050565b6000602082019050818103600083015261283981612546565b9050919050565b60006020820190506128556000830184612569565b92915050565b600060c0820190506128706000830189612569565b818103602083015261288281886122cf565b90506128916040830187612278565b61289e6060830186612569565b6128ab6080830185612569565b6128b860a0830184612287565b979650505050505050565b60006128cd6128de565b90506128d98282612b30565b919050565b6000604051905090565b600067ffffffffffffffff82111561290357612902612c97565b5b61290c82612cda565b9050602081019050919050565b600067ffffffffffffffff82111561293457612933612c97565b5b61293d82612cda565b9050602081019050919050565b600081519050919050565b600081519050919050565b600082825260208201905092915050565b600082825260208201905092915050565b600081905092915050565b600061299882612ab2565b91506129a383612ab2565b9250827fffffffffffffffffffffffffffffffffffffffffffffffffffffffffffffffff038211156129d8576129d7612bdb565b5b828201905092915050565b60006129ee82612ab2565b91506129f983612ab2565b925082612a0957612a08612c0a565b5b828204905092915050565b6000612a1f82612ab2565b9150612a2a83612ab2565b925082821015612a3d57612a3c612bdb565b5b828203905092915050565b6000612a5382612a92565b9050919050565b60008115159050919050565b60007fffffffff0000000000000000000000000000000000000000000000000000000082169050919050565b600073ffffffffffffffffffffffffffffffffffffffff82169050919050565b6000819050919050565b82818337600083830152505050565b60005b83811015612ae9578082015181840152602081019050612ace565b83811115612af8576000848401525b50505050565b60006002820490506001821680612b1657607f821691505b60208210811415612b2a57612b29612c39565b5b50919050565b612b3982612cda565b810181811067ffffffffffffffff82111715612b5857612b57612c97565b5b80604052505050565b6000612b6c82612ab2565b91507fffffffffffffffffffffffffffffffffffffffffffffffffffffffffffffffff821415612b9f57612b9e612bdb565b5b600182019050919050565b6000612bb582612ab2565b9150612bc083612ab2565b925082612bd057612bcf612c0a565b5b828206905092915050565b7f4e487b7100000000000000000000000000000000000000000000000000000000600052601160045260246000fd5b7f4e487b7100000000000000000000000000000000000000000000000000000000600052601260045260246000fd5b7f4e487b7100000000000000000000000000000000000000000000000000000000600052602260045260246000fd5b7f4e487b7100000000000000000000000000000000000000000000000000000000600052603260045260246000fd5b7f4e487b7100000000000000000000000000000000000000000000000000000000600052604160045260246000fd5b600080fd5b600080fd5b600080fd5b600080fd5b6000601f19601f8301169050919050565b7f4552433732313a207472616e7366657220746f206e6f6e20455243373231526560008201527f63656976657220696d706c656d656e7465720000000000000000000000000000602082015250565b7f4552433732313a20746f6b656e20616c7265616479206d696e74656400000000600082015250565b7f4552433732313a207472616e7366657220746f20746865207a65726f2061646460008201527f7265737300000000000000000000000000000000000000000000000000000000602082015250565b7f4552433732313a20617070726f766520746f2063616c6c657200000000000000600082015250565b7f4552433732313a206f70657261746f7220717565727920666f72206e6f6e657860008201527f697374656e7420746f6b656e0000000000000000000000000000000000000000602082015250565b7f4552433732313a20617070726f76652063616c6c6572206973206e6f74206f7760008201527f6e6572206e6f7220617070726f76656420666f7220616c6c0000000000000000602082015250565b7f4552433732313a2062616c616e636520717565727920666f7220746865207a6560008201527f726f206164647265737300000000000000000000000000000000000000000000602082015250565b7f4552433732313a206f776e657220717565727920666f72206e6f6e657869737460008201527f656e7420746f6b656e0000000000000000000000000000000000000000000000602082015250565b7f45524337323155524953746f726167653a2055524920736574206f66206e6f6e60008201527f6578697374656e7420746f6b656e000000000000000000000000000000000000602082015250565b7f4552433732313a206d696e7420746f20746865207a65726f2061646472657373600082015250565b7f45524337323155524953746f726167653a2055524920717565727920666f722060008201527f6e6f6e6578697374656e7420746f6b656e000000000000000000000000000000602082015250565b7f4552433732313a20617070726f76656420717565727920666f72206e6f6e657860008201527f697374656e7420746f6b656e0000000000000000000000000000000000000000602082015250565b7f4552433732313a207472616e73666572206f6620746f6b656e2074686174206960008201527f73206e6f74206f776e0000000000000000000000000000000000000000000000602082015250565b7f4552433732314d657461646174613a2055524920717565727920666f72206e6f60008201527f6e6578697374656e7420746f6b656e0000000000000000000000000000000000602082015250565b7f4552433732313a20617070726f76616c20746f2063757272656e74206f776e6560008201527f7200000000000000000000000000000000000000000000000000000000000000602082015250565b7f4552433732313a207472616e736665722063616c6c6572206973206e6f74206f60008201527f776e6572206e6f7220617070726f766564000000000000000000000000000000602082015250565b61317281612a48565b811461317d57600080fd5b50565b61318981612a5a565b811461319457600080fd5b50565b6131a081612a66565b81146131ab57600080fd5b50565b6131b781612ab2565b81146131c257600080fd5b5056fea26469706673582212202b19093e56680d92266802dfe47f68e5de2190c243a756b65cab48b34409b08a64736f6c63430008070033",
  "immutableReferences": {},
  "source": "pragma solidity 0.8.7;\n \nimport \"@openzeppelin/contracts/token/ERC721/extensions/ERC721URIStorage.sol\"; \n \ncontract Reservation is ERC721URIStorage{\n\nmapping( uint => reservation) public reservations; \n    uint public count;\n    address public owner;\n  struct reservation {\n      uint id;\n      string name;\n      address customer_addr;\n      uint people;\n      uint dateEpoch;\n      bool valid;\n  }\nconstructor() ERC721(\"Reservation\", \"RESERVATION\") public {\n    owner = msg.sender;\n     \n}\nfunction mint(address _customer_addr, string memory _name, uint _people, uint  _dateEpoch, string memory _tokenURI) public {\n    \n    require(owner == msg.sender); \n    require(bytes(_name).length > 0);\n    require(_dateEpoch > block.timestamp);\n        uint _id = count; \n    _safeMint(_customer_addr, _id);\n    _setTokenURI(_id, _tokenURI);\n    count ++; \n    reservation memory _reservation = reservations[_id];\n    _reservation.id = count;\n    _reservation.name = _name;\n    _reservation.people = _people;\n    _reservation.customer_addr = _customer_addr;\n    _reservation.dateEpoch = _dateEpoch;\n    _reservation.valid = true;\n    reservations[_id] = _reservation; \n}\n\n\nfunction checkValidity(uint _id) public view returns(bool){\n    bool is_valid = reservations[_id].valid;\n    if(block.timestamp > reservations[_id].dateEpoch){\n    is_valid = false;\n    }\n    return is_valid;\n}\n\nfunction the_total_Supply() public view returns(uint){\nreturn count;\n} \n \n}",
  "sourcePath": "/Users/cham/test_nf2/nft/src/contracts/Reservation.sol",
  "compiler": {
    "name": "solc",
    "version": "0.8.7+commit.e28d00a7.Emscripten.clang"
  },
  "schemaVersion": "3.4.2",
  "updatedAt": "2021-08-30T16:23:21.702Z",
  "networkType": "ethereum",
  "devdoc": {
    "kind": "dev",
    "methods": {
      "approve(address,uint256)": {
        "details": "See {IERC721-approve}."
      },
      "balanceOf(address)": {
        "details": "See {IERC721-balanceOf}."
      },
      "getApproved(uint256)": {
        "details": "See {IERC721-getApproved}."
      },
      "isApprovedForAll(address,address)": {
        "details": "See {IERC721-isApprovedForAll}."
      },
      "name()": {
        "details": "See {IERC721Metadata-name}."
      },
      "ownerOf(uint256)": {
        "details": "See {IERC721-ownerOf}."
      },
      "safeTransferFrom(address,address,uint256)": {
        "details": "See {IERC721-safeTransferFrom}."
      },
      "safeTransferFrom(address,address,uint256,bytes)": {
        "details": "See {IERC721-safeTransferFrom}."
      },
      "setApprovalForAll(address,bool)": {
        "details": "See {IERC721-setApprovalForAll}."
      },
      "supportsInterface(bytes4)": {
        "details": "See {IERC165-supportsInterface}."
      },
      "symbol()": {
        "details": "See {IERC721Metadata-symbol}."
      },
      "tokenURI(uint256)": {
        "details": "See {IERC721Metadata-tokenURI}."
      },
      "transferFrom(address,address,uint256)": {
        "details": "See {IERC721-transferFrom}."
      }
    },
    "version": 1
  },
  "userdoc": {
    "kind": "user",
    "methods": {},
    "version": 1
  }
}